S00D000066696E616C2E737265630D
S11300000C94A7000C94C4000C94C4000C94C40079
S11300100C94C4000C94C4000C94C4000C94C4004C
S11300200C94C4000C94C4000C94C4000C94C4003C
S11300300C94C4000C94C4000C94C4000C94C4002C
S11300400C94C4000C94C4000C94C4000C94C4001C
S11300500C94C40000407A10F35A00A0724E1809A0
S11300600010A5D4E80000E87648170000E40B541B
S1130070020000CA9A3B000000E1F50500008096EA
S11300809800000040420F000000A086010000001C
S1130090102700000000E8030000000064000000D6
S11300A000000A00000000000100000000002C769F
S11300B0D888DC674F0823DFC1DFAE59E1B1B796BA
S11300C0E5E3E453C63AE651997696E8E6C2842617
S11300D0EB898C9B62ED407C6FFCEFBC9C9F40F2F3
S11300E0BAA56FA5F490055A2AF75C936B6CF9676F
S11300F06DC11BFCE0E40D47FEF520E6B500D0ED34
S1130100902E0300943577050080841E080000209B
S11301104E0A000000C80C333333330F986E128339
S11301201141EF8D2114893BE65516CFFEE6DB180D
S1130130D1844B381BF77C1D901DA4BBE4242032D2
S113014084725E228100C9F124ECA1E53D271124CB
S11301501FBECFE5D8E0DEBFCDBF11E0A0E6B0E022
S1130160E4E6F4E102C005900D92A43CB107D9F78E
S113017022E0A4ECB1E001C01D92A534B207E1F77E
S11301800E9486030C94300A0C9400008AB38ABB44
S113019087E886B9089598B39F70282F207F922B03
S11301A098BB98B39E7F98BB98B3926098BB32E09B
S11301B03A95F1F700C098B39D7F98BBEFE8F1E062
S11301C03197F1F700C0000028B3F0E18F9FC00120
S11301D01124922F9F70892B88BB88B3826088BBBF
S11301E032E03A95F1F700C088B38D7F88BB8FE980
S11301F09FE00197F1F700C00000089598B39F7045
S1130200282F207F922B98BB98B3916098BB98B30A
S1130210926098BB32E03A95F1F700C098B39D7FA5
S113022098BBEFE8F1E03197F1F700C0000028B384
S1130230F0E18F9FC0011124922F9F70892B88BBFE
S113024088B3826088BB32E03A95F1F700C088B386
S11302508D7F88BB8FE99FE00197F1F700C0000014
S113026008958FEF87BB8FE39CE90197F1F700C0F6
S1130270000083E30E94CB0082E30E94CB0088E26B
S11302800E94CB008CE00E94CB0086E00E94CB0051
S113029081E00E94CB008FE99FE00197F1F700C055
S11302A0000080E80E94CB0008950F931F93CF9322
S11302B0DF938C01C0E0D0E003C00E94FE002196D1
S11302C0F801EC0FFD1F80818111F7CFDF91CF91F1
S11302D01F910F91089581E00E94CB008FE99FE068
S11302E00197F1F700C0000080E80E94CB00089558
S11302F080EF84BB8FEF85BB85B38F7085BB000017
S113030083B38F708093D3018F30B1F78FE39CE96F
S11303100197F1F700C0000083B38F708093D3017D
S11303208F30A1F39FEF29EF80E09150204080406F
S1130330E1F700C0000083B38F708093D3018F3046
S113034029F38FEE85BB000083B38F708093D301B4
S11303508F3019F01092D60127C08FED85BB0000B5
S113036083B38F708093D3018F3021F081E0809329
S1130370D6011AC08FEB85BB000083B38F708093C6
S1130380D3018F3021F082E08093D6010DC08FE736
S113039085BB000083B38F708093D3018F3009F441
S11303A0A7CF83E08093D6018091D3018E3059F496
S11303B0E091D601F0E0EE0FFF1FEE0FFF1FE05AB1
S11303C0FF4F808108958D3059F4E091D601F0E01B
S11303D0EE0FFF1FEE0FFF1FE05AFF4F81810895BC
S11303E08B3059F4E091D601F0E0EE0FFF1FEE0FD1
S11303F0FF1FE05AFF4F82810895E091D601F0E09B
S1130400EE0FFF1FEE0FFF1FE05AFF4F8381089589
S113041082E18BBB2FEF80E792E021508040904037
S1130420E1F700C0000086E08BBB2FEF80E792E08D
S1130430215080409040E1F700C000008CE08BBB6D
S11304402FEF80E792E0215080409040E1F700C018
S1130450000088E18BBB2FEF80E792E021508040C1
S11304609040E1F700C00000089580E487B986B1A8
S1130470806486B9349BFECF86B1806186B984B12D
S113048095B108950E94C6000E9435029093D5014B
S11304908093D401BC01990F880B990B0E948506A7
S11304A026EF38E24CE950E40E9416072CE732EFBD
S11304B040E35BE30E94A40520E030E040E251E425
S11304C00E94110620E030E040ED51E40E94A405B2
S11304D06093CF017093D0018093D1019093D201A6
S11304E00895CF92DF92EF92FF921092CE01109274
S11304F0CD011092CC0180E033C092B3906492BBE2
S11305009AE19A95F1F700C0859B11C047E050E04D
S1130510481B510921E030E002C0220F331F4A95E5
S1130520E2F79091CE01292B2093CE0111C047E030
S113053050E0481B510921E030E002C0220F331F74
S11305404A95E2F720959091CE0129232093CE017C
S113055092B39F7B92BB9DE09A95F1F700008F5F69
S1130560883058F280E03EC092B3906492BB9AE126
S11305709A95F1F700C0859B16C04FE050E0481BE8
S1130580510921E030E002C0220F331F4A95E2F7FF
S11305904091CC015091CD01242B352B3093CD01CA
S11305A02093CC0117C04FE050E0481B510921E0D3
S11305B030E002C0220F331F4A95E2F720953095B0
S11305C04091CC015091CD01242335233093CD01AA
S11305D02093CC0192B39F7B92BB9DE09A95F1F757
S11305E000008F5F803108F4BFCF8091CC019091DF
S11305F0CD01969587959093CD018093CC01609120
S1130600CE0160FF05C090689093CD018093CC012A
S113061066956093CE0170E080E090E00E948506CC
S113062024E632EA48E650E40E9416076B017C0196
S11306306091CC017091CD0180E090E00E9483062E
S113064023E33BED4CE856E40E9411069B01AC0108
S1130650C701B6010E94A505FF90EF90DF90CF90EF
S113066008958091C701811107C08BB380628BBB51
S113067081E08093C70108958BB38F7D8BBB10926B
S1130680C70108958091C601811107C08BB38064AE
S11306908BBB81E08093C60108958BB38F7B8BBBAA
S11306A01092C60108958091C501811107C08BB3D2
S11306B080688BBB81E08093C50108958BB38F77ED
S11306C08BBB1092C501089580917000882331F08E
S11306D082B3816082BB10927000089582B38E7FD2
S11306E082BB81E08093700008958091C4018111E0
S11306F007C082B3826082BB81E08093C401089505
S113070082B38D7F82BB1092C4010895CF93DF938F
S1130710CDB7DEB7C456D1090FB6F894DEBF0FBE0D
S1130720CDBF9FEF91BB82B38F7B82BB9ABB1BBAB9
S11307300E94310180E80E94CB0081E790E00E9492
S113074055012FEF83ED90E3215080409040E1F775
S113075000C000000E946B0189E790E00E945501EF
S11307602FEF8DE399E4215080409040E1F700C0E1
S113077000000E946B0180E80E94CB0088E890E0B2
S11307800E94550181EC0E94CB0084E990E00E9414
S113079055012FEF8DE399E4215080409040E1F71B
S11307A000C000000E946B0180E80E94CB0083EA35
S11307B090E00E94550181EC0E94CB0081EB90E017
S11307C00E9455012FEF8DE399E421508040904021
S11307D0E1F700C000000E946B0181EC90E00E94F0
S11307E0550181EC0E94CB008AEC90E00E945501F7
S11307F02FEF83ED90E3215080409040E1F700C05B
S113080000000E9471026B017C016093C801709327
S1130810C9018093CA019093CB0120E030E040E706
S113082051E40E9411071816C4F08E010F5F1F4F88
S113083022E042E0C701B6010E94A7070E946B01B3
S1130840C8010E9455012FEF89E698E121508040AC
S11308509040E1F700C00000D4CF0E946B0180E813
S11308600E94CB008BED90E00E9455012FEF83EDA9
S113087090E3215080409040E1F700C000000E94C6
S11308806B018CEE90E00E9455010E9475030E945A
S113089031030E947801182F0E9475031133C9F7A0
S11308A00E946B0180E80E94CB0084EF90E00E94DC
S11308B055010E946B0180E80E94CB0082E091E028
S11308C00E94550181EC0E94CB0082E191E00E94DC
S11308D055010E947801813309F094C00E946B0194
S11308E080E80E94CB0082E291E00E9455010E94C0
S11308F064032FEF83ED90E3215080409040E1F7B3
S113090000C000000E9431030E9408020E944202BB
S11309106093CF017093D0018093D1019093D20161
S11309200BE312E022E043E00E94A7070E946B0160
S11309306091CF017091D0018091D1019091D20149
S113094020E030E048E453E40E9411071816B4F4A0
S11309500E94640381E391E00E9455010E947503A3
S11309600E946B0181E491E00E94550181EC0E9498
S1130970CB008DE491E00E94550105C08BE392E029
S11309800E945501C1CF0E947801182F813319F5B7
S11309900E9475030E9442030E946B0180E80E943A
S11309A0CB008AE591E00E9455012FEF83ED90E39F
S11309B0215080409040E1F700C000000E946B018C
S11309C088E691E00E94550181EC0E94CB0083E708
S11309D091E00E9455011233B1F60E9442030E9435
S11309E06B0180E80E94CB008FE791E00E945501E3
S11309F02FEF8DE399E4215080409040E1F700C04F
S1130A00000067CF823309F064CF0E946B0180E855
S1130A100E94CB0089E891E00E9455010E94640382
S1130A202FEF83ED90E3215080409040E1F700C028
S1130A3000000E9431030E9408020E944202609357
S1130A40CF017093D0018093D1019093D2010BE335
S1130A5012E022E043E00E94A7070E946B0160912C
S1130A60CF017091D0018091D1019091D20120E009
S1130A7030E048E453E40E94110718160CF50E9474
S1130A80640387E991E00E9455010E9475032FEFEA
S1130A9083ED90E3215080409040E1F700C00000D6
S1130AA00E9475030E946B0187EA91E00E94550140
S1130AB081EC0E94CB0082EB91E00E94550105C0BD
S1130AC08BE392E00E945501B6CF0E947801182F63
S1130AD0813319F50E9475030E9453030E946B0130
S1130AE080E80E94CB008AE591E00E9455012FEF37
S1130AF08DE399E4215080409040E1F700C000006C
S1130B000E946B0188E691E00E94550181EC0E94ED
S1130B10CB0083E791E00E9455011233B1F60E94A5
S1130B2053030E946B0180E80E94CB008FE791E0A1
S1130B300E9455012FEF8DE399E4215080409040AD
S1130B40E1F700C00000C5CE5058BB27AA270E9479
S1130B50BC050C94D7060E94C90638F00E94D00642
S1130B6020F039F49F3F19F426F40C94C6060EF4D1
S1130B70E095E7FB0C94C006E92F0E94E80658F3C1
S1130B80BA17620773078407950720F079F4A6F56E
S1130B900C940A070EF4E0950B2EBA2FA02D0B012E
S1130BA0B90190010C01CA01A0011124FF27591BAE
S1130BB099F0593F50F4503E68F11A16F040A22FB4
S1130BC0232F342F4427585FF3CF46953795279525
S1130BD0A795F0405395C9F77EF41F16BA0B620B24
S1130BE0730B840BBAF09150A1F0FF0FBB1F661F6B
S1130BF0771F881FC2F70EC0BA0F621F731F841FAE
S1130C0048F4879577956795B795F7959E3F08F0D3
S1130C10B0CF9395880F08F09927EE0F9795879595
S1130C2008950E9425060C94D7060E94D00658F019
S1130C300E94C90640F029F45F3F29F00C94C006D5
S1130C4051110C940B070C94C6060E94E80668F335
S1130C509923B1F3552391F3951B550BBB27AA2771
S1130C6062177307840738F09F5F5F4F220F331FAB
S1130C70441FAA1FA9F335D00E2E3AF0E0E832D073
S1130C8091505040E695001CCAF72BD0FE2F29D076
S1130C90660F771F881FBB1F261737074807AB0748
S1130CA0B0E809F0BB0B802DBF01FF2793585F4FBD
S1130CB03AF09E3F510578F00C94C0060C940B0753
S1130CC05F3FE4F3983ED4F3869577956795B7959F
S1130CD0F7959F5FC9F7880F911D9695879597F9AA
S1130CE00895E1E0660F771F881FBB1F6217730723
S1130CF08407BA0720F0621B730B840BBA0BEE1F38
S1130D0088F7E0950895E89409C097FB3EF4909520
S1130D108095709561957F4F8F4F9F4F9923A9F0D0
S1130D20F92F96E9BB279395F6958795779567955F
S1130D30B795F111F8CFFAF4BB0F11F460FF1BC0A3
S1130D406F5F7F4F8F4F9F4F16C0882311F096E936
S1130D5011C0772321F09EE8872F762F05C06623E4
S1130D6071F096E8862F70E060E02AF09A95660F9D
S1130D70771F881FDAF7880F9695879597F9089556
S1130D8097F99F6780E870E060E008959FEF80EC3A
S1130D90089500240A9416161706180609060895DD
S1130DA000240A9412161306140605060895092E43
S1130DB00394000C11F4882352F0BB0F40F4BF2BB2
S1130DC011F460FF04C06F5F7F4F8F4F9F4F0895F2
S1130DD057FD9058440F551F59F05F3F71F04795E8
S1130DE0880F97FB991F61F09F3F79F087950895CD
S1130DF0121613061406551FF2CF4695F1DF08C0EC
S1130E00161617061806991FF1CF86957105610508
S1130E1008940895E894BB2766277727CB0197F9B0
S1130E2008950E94830708F48FEF08950E9429070C
S1130E300C94D7060E94C90638F00E94D00620F010
S1130E40952311F00C94C0060C94C60611240C943E
S1130E500B070E94E80670F3959FC1F3950F50E0CD
S1130E60551F629FF001729FBB27F00DB11D639F58
S1130E70AA27F00DB11DAA1F649F6627B00DA11DFE
S1130E80661F829F2227B00DA11D621F739FB00DA4
S1130E90A11D621F839FA00D611D221F749F332714
S1130EA0A00D611D231F849F600D211D822F762FAD
S1130EB06A2F11249F5750409AF0F1F088234AF08A
S1130EC0EE0FFF1FBB1F661F771F881F91505040F6
S1130ED0A9F79E3F510580F00C94C0060C940B07B3
S1130EE05F3FE4F3983ED4F3869577956795B7957D
S1130EF0F795E7959F5FC1F7FE2B880F911D969597
S1130F00879597F90895990F0008550FAA0BE0E803
S1130F10FEEF16161706E807F907C0F012161306B7
S1130F20E407F50798F0621B730B840B950B39F4F7
S1130F300A2661F0232B242B252B21F408950A265D
S1130F4009F4A140A6958FEF811D811D0895EF92AC
S1130F500F931F93CF93DF93E80147FD02C034E062
S1130F6001C034E1042E000C550B57FF03C051950A
S1130F7041955109E32E022F242FAE010E94C70789
S1130F80CE01DF91CF911F910F91EF900895A9E0C9
S1130F90B0E0EDECF7E00C94FF096A01122FB02EDB
S1130FA02BE3201720F0FF24F394F00E02C02CE36F
S1130FB0F22E0F2D27E0AE014F5F5F4F0E942109F3
S1130FC0BC014981842F8970813031F0E1FC06C075
S1130FD0E0FE06C090E205C09DE203C09BE201C0B2
S1130FE090E05E2D507143FF3CC0911102C083E03C
S1130FF001C084E0811718F4212F281B01C020E0D0
S113100051110BC0F601822F30E2882319F031937D
S11310108150FBCFC20ED11C20E0992329F0D601C8
S11310209C93F60131966F01C6010396E2FE0AC055
S11310303EE4D6013C9341E411964C9311971296E9
S11310403C9306C03EE6F601308341E64183328399
S1131050FC01322F40E2332309F442C04193315062
S1131060FACF42FF44C0911102C083E001C084E082
S1131070811718F4212F281B01C020E051110BC047
S1131080F601822F30E2882319F031938150FBCF8F
S1131090C20ED11C20E0992329F0D6019C93F601BD
S11310A031966F01C6010396E2FE0BC039E4D60106
S11310B03C933EE411963C93119736E412963C938C
S11310C007C039E6F60130833EE6318336E63283E3
S11310D0FC01322F40E2332319F041933150FBCF0E
S11310E0FC01E20FF11D10828EEF9FEFA6C021E0FC
S11310F030E0911102C020E030E0161617061CF40F
S1131100FB01319602C0E1E0F0E02E0F3F1FBB204F
S113111021F0EB2DF0E0319602C0E0E0F0E02E0F7C
S11311203F1FE12FF0E02E173F071CF4121B212F65
S113113001C020E08E2D887159F4F601822F30E22F
S1131140882319F031938150FBCFC20ED11C20E0CB
S1131150992329F0D6019C93F60131966F01511120
S11311600BC0F601822F90E3882319F091938150EC
S1131170FBCFC20ED11C20E00F2D060F9A81342F15
S1131180307144FF03C0913309F40150101624F464
S1131190093018F008E001C001E0AB0177FF02C09C
S11311A040E050E0FB01E41BF50BA1E0B0E0AC0F24
S11311B0BD1FEA0FFB1F8EE2A82E4B01801A910877
S11311C00B2D10E01195019511094F3FBFEF5B07FF
S11311D021F4D601AC9211966D01641775072CF0B9
S11311E08416950614F4818101C080E341505109AD
S11311F03196D60111967D014017510724F0D6018E
S11312008C936701E2CF6417750739F4963320F4A1
S1131210953319F4311101C081E3F6018083F7019C
S1131220822F90E2882319F091938150FBCFF7012C
S1131230E20FF11D108280E090E02996ECE00C941E
S11312401B0A283008F027E03327DA01990F311DF3
S113125087FD916000966105710539F432602E5F57
S11312603D9330E32A95E1F708959F3F30F08038AD
S11312707105610509F03C5F3C5F3D93913008F0D6
S11312808068911DDF93CF931F930F93FF92EF928A
S1131290192F987F9695E92F96959695E90FFF2734
S11312A0E255FF4F99273327EE24FF24A701E701D6
S11312B005900894079428F4360FE71EF81E491F7A
S11312C0511D660F771F881F991F0694A1F705907B
S11312D0079428F4E70EF81E491F561FC11D770F07
S11312E0881F991F661F0694A1F70590079428F498
S11312F0F80E491F561FC71FD11D880F991F661F5F
S1131300771F0694A1F70590079420F4490F561F00
S1131310C71FD81F990F661F771F881F0694A9F748
S113132084911095177041F0D695C79557954795B8
S1131330F794E7941A95C1F7E4E5F0E06894159002
S1131340159135916591959105907FE27395E1181A
S1131350F10A430B560BC90BD009C0F7E10CF11E7F
S1131360431F561FC91FD01D7EF4703311F48A9594
S1131370E6CFE894015030F0080F0AF40027021772
S113138008F4202F2395022F7A3328F079E37D93F4
S11313902A95E9F710C07D932A9589F606949795C6
S11313A06795379517951794E118F10A430B560B77
S11313B0C90BD00998F023957E9173957A3308F080
S11313C070E37C932013B8F77E9170617D9330F0C5
S11313D0839571E37D9370E32A95E1F71124EF90EF
S11313E0FF900F911F91CF91DF91992787FD9095E1
S11313F008952F923F924F925F926F927F928F92B5
S11314009F92AF92BF92CF92DF92EF92FF920F938F
S11314101F93CF93DF93CDB7DEB7CA1BDB0B0FB699
S1131420F894DEBF0FBECDBF09942A883988488856
S11314305F846E847D848C849B84AA84B984C884EC
S1131440DF80EE80FD800C811B81AA81B981CE0FE3
S1131450D11D0FB6F894DEBF0FBECDBFED010895C8
S1071460F894FFCF2A
S113146437343143383532303936333D2F782D2BE8
S11314740177656C636F6D65005765206172652043
S11314847465616D20313800546869732069732070
S11314946F7572004B697468756C2074726561634E
S11314A46C650020616E64206A61676765727920E7
S11314B400204D616B696E67204D616368696E65D8
S11314C400707574207361702000746F20746865F3
S11314D420636F6E7461696E657200636F6E74610C
S11314E4696E65722066696C6C65640070726573FC
S11314F47320310073656C656374206F7074696F55
S11315046E00707265737320313A74726561636C32
S11315146500707265737320323A6A756767657221
S1131524790070726F63657373696E672E2E2E2E45
S11315340074726561636C652063726561746564CB
S1131544007072657373203120746F2000676574B2
S11315542074726561636C65200056616C76652045
S11315646973206F70656E00707265737320322026
S1131574746F00636C6F73652076616C76650054D8
S113158468616E6B20596F750070726F6365737355
S1131594696E672E2E2E004A61676765727920632F
S11315A472656174656400707265737320312074AC
S11315B46F0074616B65204A616767657279206F97
S10715C47574000036
S9030000FC
