S0140000537465707065724D6F746F722E737265631C
S11300000C942A000C9434000C9434000C943400A6
S11300100C9434000C9434000C9434000C9434008C
S11300200C9434000C9434000C9434000C9434007C
S11300300C9434000C9434000C9434000C9434006C
S11300400C9434000C9434000C9434000C9434005C
S11300500C94340011241FBECFE5D8E0DEBFCDBF21
S11300600E9463000C9468000C94000082E18BBB36
S11300702FEF80E792E0215080409040E1F700C0EC
S1130080000086E08BBB2FEF80E792E02150804098
S11300909040E1F700C000008CE08BBB2FEF80E7BD
S11300A092E0215080409040E1F700C0000088E1D8
S11300B08BBB2FEF80E792E0215080409040E1F726
S11300C000C00000D3CF8FEF8ABB1BBA0E9436005A
S10700D0F894FFCFCE
S9030000FC
