S00E00006B65797061642E7372656398
S11300000C942A000C9447000C9447000C9447006D
S11300100C9447000C9447000C9447000C94470040
S11300200C9447000C9447000C9447000C94470030
S11300300C9447000C9447000C9447000C94470020
S11300400C9447000C9447000C9447000C94470010
S11300500C94470011241FBECFE5D8E0DEBFCDBF0E
S113006010E0A0E6B0E0ECE5F3E002C005900D92EC
S1130070A837B107D9F720E0A8E7B0E001C01D9286
S1130080AA37B207E1F70E9486010C94AC010C94E4
S1130090000098B39F70282F207F922B98BB98B3B1
S11300A09E7F98BB98B3926098BB32E03A95F1F783
S11300B000C098B39D7F98BBEFE8F1E03197F1F76A
S11300C000C0000028B3F0E18F9FC0011124922FDB
S11300D09F70892B88BB88B3826088BB32E03A95D5
S11300E0F1F700C088B38D7F88BB8FE99FE001974B
S11300F0F1F700C00000089598B39F70282F207F67
S1130100922B98BB98B3916098BB98B3926098BBBC
S113011032E03A95F1F700C098B39D7F98BBEFE8C1
S1130120F1E03197F1F700C0000028B3F0E18F9FB0
S1130130C0011124922F9F70892B88BB88B38260E1
S113014088BB32E03A95F1F700C088B38D7F88BB55
S11301508FE99FE00197F1F700C0000008958FEF49
S113016087BB8FE39CE90197F1F700C0000083E3AC
S11301700E94490082E30E94490088E20E944900EB
S11301808CE00E94490086E00E94490081E00E94C0
S113019049008FE99FE00197F1F700C0000080E873
S11301A00E94490008950F931F93CF93DF938C010E
S11301B0C0E0D0E003C00E947C002196F801EC0F5F
S11301C0FD1F80818111F7CFDF91CF911F910F9196
S11301D0089581E00E9449008FE99FE00197F1F7BB
S11301E000C0000080E80E944900089580EF84BBAD
S11301F08FEF85BB85B38F7085BB000083B38F7091
S1130200809378008F30B1F78FE39CE90197F1F781
S113021000C0000083B38F70809378008F30A1F307
S11302209FEF29EF80E0915020408040E1F700C02B
S1130230000083B38F70809378008F3029F38FEEA2
S113024085BB000083B38F70809378008F3019F0E2
S11302501092790027C08FED85BB000083B38F70A7
S1130260809378008F3021F081E0809379001AC068
S11302708FEB85BB000083B38F70809378008F3041
S113028021F082E0809379000DC08FE785BB0000E8
S113029083B38F70809378008F3009F4A7CF83E005
S11302A080937900809178008E3059F4E091790040
S11302B0F0E0EE0FFF1FEE0FFF1FE05AFF4F8081AB
S11302C008958D3059F4E0917900F0E0EE0FFF1FAE
S11302D0EE0FFF1FE05AFF4F818108958B3059F4D0
S11302E0E0917900F0E0EE0FFF1FEE0FFF1FE05AE0
S11302F0FF4F82810895E0917900F0E0EE0FFF1F37
S1130300EE0FFF1FE05AFF4F838108950E94AF0054
S113031081EC0E94490080E790E00E94D3002FEF17
S113032089E698E1215080409040E1F700C0000048
S11303300E94E9000E94F6000E947C002FEF89E6EB
S113034098E1215080409040E1F700C000000E94F5
S10F0350E9000E94E900EECFF894FFCF12
S113035C37343143383532303936333D2F782D2B01
S10B036C77656C636F6D650099
S9030000FC
